:100000000C94B6090C94DE090C94DE090C94DE09FC
:100010000C94DE090C94DE090C94DE090C94DE09C4
:100020000C94DE090C94DE090C9425230C94942383
:100030000C94DE090C94DE090C94DE090C94DE09A4
:100040000C94DE090C94DE090C94DE090C94DE0994
:100050000C94DE090C94DE090C94DE090C94DB226E
:100060000C94DE090C94DE090C94DE090C94DE0974
:100070000C94DE090C94DE090C94DE090C94DE0964
:100080000C94C6250C94DE090C94DE090C94DE0950
:100090000C94DE090C94DE090C94DE090C94DE0944
:1000A0000C94DE090C94DE090C94DE0900000000BB
:1000B000DC0FDC0F78004800F07F007FF88178804B
:1000C000FC1FFC1EFC277C27FC0F540FFC0F6C0F41
:1000D000FC277C27FC1FFC1EF8817880F07F007FC6
:1000E00078004800DC0FDC0F00000000000000007A
:1000F000B007B007F0089008E03F003EF043F04042
:10010000F83FF83DF84FF84EF81FA81EF81FD81E0C
:10011000F84FF84EF83FF83DF043F040E03F003E26
:10012000F0089008B007B0070000000000000000D1
:1001300080070000C0030000E0030000C0070000CB
:10014000C0010000F00F8000E0070000E0070000A1
:10015000F00F8000C0010000C0070000E0030000B5
:10016000C003000080070000000000000000000045
:1001700040010000C0030000C0070000800700002D
:1001800080030000E01F0001C00F0000C00F00004E
:10019000E01F00018003000080070000C00700008E
:1001A000C00300004001000000000000000000004B
:1001B000000E000C000F000980078003F807F80309
:1001C000FCFF0477FE3F5626FE3FF636FE3FF6362E
:1001D000FE3F5636FC7F0437F803F80380018001A8
:1001E0001C1E1C0CF67FF66D0000000000000000D5
:1001F00000000000000C000C800F800BF007F003E3
:10020000F87F0836FC3FAC24FC3FEC35FC3FEC3576
:10021000FC3FAC34F8FF0876F003F0030003000362
:10022000383C3818ECFFECDB000000000000000058
:10023000003F003F007F0041007F005D007F005DC8
:10024000FC7F7C41FE7F6E3FFE3F0E00FE1F0E1BBB
:10025000FEFF6EFBFCFF7CFB801F0011801F000473
:10026000FC1FFC15000E0004000E00000000000042
:10027000003F003F007F0041007F005D007F005D88
:10028000F8FFF8C1FCFFDCBFFC3F1C00FC3F1C3644
:10029000FC7FDC76F87FF876001F0002001F000864
:1002A000F83FF82B001C0008001C000000000000B4
:1002B000F87FF87FFCFF4CC2FCFF54BAFCFF5CBA2D
:1002C000FCFF5CBAFCFF5CA0FCFF5CACFCFF5CAC20
:1002D000FCFF5CA0FCFF5CBAFCFF5CBAFCFF54BAFC
:1002E000FCFF4CC2F87FF87F000000000000000017
:1002F000F07FF07FF8FF18C2F8FFE8BAF8FFF8BA0D
:10030000F8FFF8BAF8FFF8A0F8FFF8ACF8FFF8AC7F
:10031000F8FFF8A0F8FFF8BAF8FFF8BAF8FFE8BA63
:10032000F8FF18C2F07FF07F00000000000000001E
:100330000000000000000000F007F007F047F04761
:10034000F087B086F007B006FCFFB4F6FCFFB4F609
:10035000F007B006F087B086F047F047F007F007E7
:10036000000000000000000000000000000000008D
:1003700000000000C03FC02F807E805E007C005CDB
:1003800000FC00BC20FF20BFF0FFF0B9F0FFF0B987
:1003900020FF20BF00FC00BC007C005C807E805EF3
:1003A000C03FC02F0000000000000000000000005F
:1003B000000000000060006000F000D000F000D0FD
:1003C00080FF80DFC07F4075C07F4075C07F407573
:1003D000807F807F00FC00D400FC00D400FC00D4AF
:1003E000007800780000000000000000000000001D
:1003F0000C000C003C9C309CFCFF846FFCFFFC8DCF
:10040000FCFF5CEFFCFF5CEDFCFF7CEDFCFF5CEDBA
:10041000FCFF5CEDFCFF5CEDFCFFDCEDFCFF5CEF4A
:10042000FCE3FCE37860786000000000000000005E
:10043000000000000000000000380038007C00448C
:1004400038FE38BAF8FFE8BDFCFF0CBCFCFF0CBC62
:10045000F8FFE8BD38FE38BA007C004400380038A8
:10046000000000000000000000000000000000008C
:1004700060006000E00FE00DF03FF03DF17FF17DA6
:10048000FBFFFBFDFFFFFEFDFFFFFEFDFFFFFEFD8F
:10049000FFFFFEFDFBFFFBFDF17FF17DF03FF03D37
:1004A000E00FE00D60006000000000000020000090
:1004B000007000000070000000F80000C0FFC03FA6
:1004C00000F9000900F9000900F9000900F9000924
:1004D00000F9000900F90009C0FFC03F00F8000062
:1004E0000070000000700000002000000400000008
:1004F0000E0000000E0000001F000000FF03FC03C0
:100500009F0090009F0090009F0090009F0090002F
:100510009F0090009F009000FF03FC031F0000005D
:100520000E0000000E0000000400000001000200A8
:1005300004000800100020004000800000010002BC
:1005400000040008001000200040008001020408A0
:10055000102040800F00080F0004080C0F00020557
:10056000080A0D0F00020406080A0C0E0F00010312
:10057000040608090B0C0E0F000102040506080909
:100580000A0C0D0E0F0001020304050608090A0BF0
:100590000C0D0E0F000102030405060708090A0BE3
:1005A0000C0D0E0F0F0000010203040506070808DA
:1005B000090A0B0C0D0E0F0F0000010203040405C5
:1005C00006070808090A0B0C0C0D0E0F0F0000019E
:1005D00002020304050506070808090A0A0B0C0DA8
:1005E0000D0E0F0F000001020203040405060607AA
:1005F0000808090A0A0B0C0C0D0E0E0F0F00000163
:1006000001020303040405060607080809090A0B8A
:100610000B0C0C0D0E0E0F0F000001010202030463
:10062000040505060607080809090A0A0B0C0C0D43
:100630000D0E0E0F0F00000101020203030404055A
:1006400005060607080809090A0A0B0B0C0C0D0D14
:100650000E0E0F0F00000101020203030404050542
:1006600006060707080809090A0A0B0B0C0C0D0DF2
:100670000E0E0F0F0F2C023204140302006000ACA8
:10068000011E051403020160002C0114070A020078
:10069000005001AC000A07050100003200FFFFFF17
:1006A000FFFFD1FFFFF9FFF9FFC1EBC1FFD3C1E5A8
:1006B000FFCDF7D9FFCBD5EBFFFFF9FFFFFFE3DD60
:1006C000FFFFDDE3FFEBF7EBFFF7E3F7FFDFEFFF04
:1006D000FFF7F7F7FFFFDFFFFFCFF7F9FFC3DDE11C
:1006E000FFDBC1DFFFCDD5D3FFDDD5EBFFE1EFC7EA
:1006F000FFD1D5E5FFC3D5E5FFCDF5F9FFC3D5E1C2
:10070000FFD3D5E1FFFFEBFFFFDFEBFFFFF7EBDDF3
:10071000FFEBEBEBFFDDEBF7FFFDD5F9FFE3DDD3FF
:10072000FFC3F5C1FFC3D5E9FFE3DDDDFFC1DDE3B5
:10073000FFC3D5D5FFC3F5F5FFE3DDC5FFC1F7C1A5
:10074000FFDDC1DDFFEFDDE1FFC1F7C9FFC1DFDF85
:10075000FFC1FBC1FFC1FDC3FFE3DDE3FFC1F5F353
:10076000FFE3CDC1FFC3F5C9FFDBD5EDFFFDC1FD43
:10077000FFE1DFC1FFE1DFE1FFC1EFC1FFC9F7C961
:10078000FFF9C7F9FFCDD5D9FFFFC1DDFFF9F7CFDD
:10079000FFFFDDC1FFFBFDFBFFDFDFDFFFFFFDFB39
:1007A000FFE7DBC3FFC1DBE7FFE7DBDBFFE7DBC125
:1007B000FFE7CBD3FFC3EDFBFFB7ABC7FFC1F7CF5D
:1007C000FFFFE5DFFFBFCBFFFFC1F7CBFFFFE1DF9F
:1007D000FFC3F7C3FFC3FBC7FFE7DBE7FF83DBE72D
:1007E000FFE7DB83FFC3F7FBFFD7D3EBFFE1DBDFE3
:1007F000FFE3DFC3FFC3DFE3FFC3EFC3FFCBF7CBF1
:10080000FFF3AFC3FFDBCBD3FFF7C1DDFFFFC1FFBA
:10081000FFDDC1F7FFFBFDFBFFE3EDE3FF4162619D
:100820006E646F6E20616C6C20686F7065207965F6
:100830002077686F20656E7465722100466F756E53
:100840006420612063686573742066756C6C206F2A
:10085000662074726561737572652100CE010700B0
:10086000000015008D0107000000070016040700B6
:1008700091040700B2030700DA0407002D051500F4
:10088000DA04070091040700E0020700960207005F
:100890005A020700F10107001902070000000700D3
:1008A000CE0107007C000E005C0107007D000E00F9
:1008B000200107007D000E00EF000700D5000700B3
:1008C000CA00070000000700C1000700B9000700C8
:1008D000B3000700A90007007D0007007E000700A5
:1008E000930007007E000700000007008900070052
:1008F0008500070082000700800007007E000700D7
:100900007D0007000080B001070000001500C8004E
:10091000070000000700B203070060030700E002C1
:100920000700960207004802070019020700FD01B0
:10093000070050040700CE010700B9010700A70116
:100940000700500407007E01070063010700400113
:1009500007002D050700100107000901070002012B
:100960000700F8000700DA040700CA000700BB0010
:100970000700B30007009104070096000700D800A5
:10098000070000001D009602070000002B0028024F
:10099000070000002400FB000E000080080B00028E
:1009A0000202010009040000010202000005240007
:1009B000100105240101010424020605240600019A
:1009C0000705810310004009040100020A0000002D
:1009D00007050202400000070583024000000403EF
:1009E000090412010002EF02014041233680000198
:1009F0000102030141726475696E6F204C4C430023
:100A000041726475626F7900D5F08D14A1C881CFF1
:100A1000D9F1AF200031010700000015008D01075A
:100A200000000007003C0307001902070038020716
:100A3000005A020700800007005A021D007E0007CE
:100A4000005A0207003802070028020700190207AF
:100A5000007D000E008D010700280107002001071E
:100A600000F8000700EF0007007D000700AC00075A
:100A7000009B000700930007008E0007008B000713
:100A80000087000700840007007D00070081000741
:100A9000000080466F756E6420616E20616E636930
:100AA000656E74207363726F6C6C00466F756E6454
:100AB0002061206A6577656C20656E63727573745A
:100AC00065642063726F776E00466F756E64207385
:100AD0006F6D6520676F6C6420636F696E7300448F
:100AE00072616E6B206120706F74696F6E206F662B
:100AF000206865616C696E670020010700000015C1
:100B000000E9000700000007005601150000003250
:100B10000085011D00000040000B0215000000329E
:100B200000870324000000400087032B00000040E2
:100B300000B20332000080E002070000001500E26E
:100B400003070000000700DA041500B4000700D90D
:100B500001070000000700F1010E0080000700F10E
:100B600001070000000E005A020700E40007000021
:100B7000001500C100070000000E00E5010700009D
:100B8000000700AC000700000015009100070000FE
:100B90008010010700000015008D0107000000070C
:100BA00000D9010700FD0107000B020E0028020E0C
:100BB0000038020700480207006D02070081023278
:100BC000006D0215004802070038020700B0010757
:100BD000007E010700690107004B0107003601078D
:100BE000003101070002010700F8000700F20007CA
:100BF00000E9000700E4000700D8000700BD000777
:100C000000AB0007009D0007009600070094000756
:100C100000920007008E0007008B0007008A000783
:100C2000008900070088000700870007008600078A
:100C3000008500070084000700830007008200078A
:100C40000081000E0081000700800007007E000781
:100C5000007D0007007D000700000040009000328A
:100C600000008095010700000015008D01070000BD
:100C7000000700160407007F00070000000E007741
:100C800001070000001D0046010700400107003B6E
:100C900001070000004700E7000700E4000700002C
:100CA0000015009F0007009D0007000000880088D5
:100CB000000700008051010700000015008D0107AA
:100CC00000000007004B010700360107004601073E
:100CD00000690107009E0107007F000700850107EA
:100CE00000280207006D020700FC020700E002076F
:100CF00000FD010700190207003C030700E7000799
:100D000000810207006D020E002D050E00DA040EB0
:100D1000001C01070087030700600307003C03076E
:100D20000087030700AD020E00C60207000C010E8B
:100D300000E0020700C602070096020E00810207CB
:100D400000AD020700C6020700E0020700E100074D
:100D5000001B0307004802070019020700F1010702
:100D600000D9010E00F10107000B020700AD0207D8
:100D700000D10007004802070038020700190207E7
:100D80000028020E000B020700E5010700D9010749
:100D900000008000000000000000000000000000D3
:100DA0000000000000000000000000F000B000FCA7
:100DB0007F9C5EFA7F9A5EF000B0000000000000A9
:100DC0000000000000000000000000000000000023
:100DD0000000000000000000000000000000000013
:100DE0000000000000000000000000F000B000F86B
:100DF0007F985EFD7F9D5EF000B000000000000067
:100E000000000000000000000000000000000000E2
:100E1000000000627920406A616D657368686F77D1
:100E20006172640043415441434F4D4253204F4649
:100E3000205448452044414D4E4544004C6F6F6B53
:100E4000696E6720666F7220706C6179657200430D
:100E50006F6E6E65637420746F206E6574776F7249
:100E60006B00456E746572696E6720666C6F6F7299
:100E70000000000000C0070000F00F0000F81F0095
:100E800000FC3F0002FE3F0001FE7F9001FE7FE07C
:100E900003FE7FC007FE7F8009FC7F8000FC3F408F
:100EA00000F81F0000F00F0000E003000000000049
:100EB000000000000000000000F000F000F801F861
:100EC00001FC03FC03FC07DC07FC073C07FC173CA8
:100ED00016F8077804F02FF02CE00FE00F001E004A
:100EE0001E80188018002200220000000000000070
:100EF000001C1C00000000000000000000000606AE
:100F00000F0E1F1C7E78FCF4FEE8FC90F860F08069
:100F1000E000800000000000000000000000000071
:100F20000000000000000000000000000C0C1E1C6F
:100F30003E387C70F8E0F0C0E080C080C080C7C759
:100F4000FFFFFFFFFFF8FFFFFFE0FFFCFE00FC00DC
:100F50000000000000000000000000000000000091
:100F6000000000000000000000000000000003037B
:100F70000F0F1F1F3F3F7F7FFFFFFFFFFFFFFFFFA1
:100F8000FFFFFFFFFFFEFFF0FE60F040E000C0004B
:100F900080000000000000000000000000000000D1
:100FA0000000000000000000000000000000000041
:100FB000000001010F010F010F000F000F000F00D3
:100FC0000F000F000F000F000F000F000F000F00A9
:100FD0000E000C1C1B000000000000000000383850
:100FE000FCF8FCE0F880E0008000FFFEFFFCFEC0A3
:100FF000FC00F0F0F8F0F800F0C0E000C0000000E5
:1010000000000000000000000000000000000000E0
:101010000000000000000000000003030F0FFFFEAF
:10102000FFFCFFFFFFFFFFFFFFF8FFFFFFFFFFFCDD
:10103000FFFFFF1FFF001F00000000000000000076
:1010400000000000000008081C183C183C183C1860
:101050003C183C1C3E3E7F3F7F7FFF7FFF7FFFFFB2
:10106000FFFFFF7FFF3FFF1FFF1FFF0FFF0EFF0070
:10107000FE00F000F000E000E000C000C000000052
:101080000000000000000000000000000000000060
:101090000000000000000000010001000700070040
:1010A0000700070007000700070007000700070008
:1010B00007000700077CCEB69AB6CE7C007CE6C659
:1010C0008EC6E67C000000000000000000001F004B
:1010D0001F803F802FFC3FFC01FEFF0EFEFEFFC67F
:1010E000FDFEFFA603FEFFA603FEFFC6FDFEFF0EEC
:1010F000FEFC3FFC01803F802F001F001F0000000E
:1011000000000000000000000000000000001F00C0
:101110001F803F802FFC3FFC01FEFFFEFFFEFFFE15
:10112000FFFEFFFEFFFEFFFEFFFEFFFEFFFEFFFED7
:10113000FFFC3FFC01803F802F001F001F000000CC
:101140000000000000000006000C00120019001F43
:101150000025002B00310038003E0044004A0050BA
:101160000056005C00610067006D00730078007E2F
:1011700000830088008E00930098009D00A200A7C5
:1011800000AB00B000B500B900BD00C100C500C98A
:1011900000CD00D100D400D800DB00DE00E100E487
:1011A00000E700EA00EC00EE00F100F300F400F6C6
:1011B00000F800F900FB00FC00FD00FE00FE00FF4F
:1011C00000FF00FF00FF00FF00FF00FF00FE00FE29
:1011D00000FD00FC00FB00F900F800F600F400F34D
:1011E00000F100EE00EC00EA00E700E400E100DEC0
:1011F00000DB00D800D400D100CD00C900C500C17B
:1012000000BD00B900B500B000AB00A700A2009D72
:1012100000980093008E00880083007E00780073A1
:10122000006D00670061005C00560050004A0044F9
:10123000003E00380031002B0025001F001900126D
:10124000000C0006000000FAFFF4FFEEFFE7FFE1EC
:10125000FFDBFFD5FFCFFFC8FFC2FFBCFFB6FFB06B
:10126000FFAAFFA4FF9FFF99FF93FF8DFF88FF82D6
:10127000FF7DFF78FF72FF6DFF68FF63FF5EFF5920
:10128000FF55FF50FF4BFF47FF43FF3FFF3BFF373B
:10129000FF33FF2FFF2CFF28FF25FF22FF1FFF1C1E
:1012A000FF19FF16FF14FF12FF0FFF0DFF0CFF0ABF
:1012B000FF08FF07FF05FF04FF03FF02FF02FF0116
:1012C000FF01FF01FF01FF01FF01FF01FF02FF021C
:1012D000FF03FF04FF05FF07FF08FF0AFF0CFF0DD8
:1012E000FF0FFF12FF14FF16FF19FF1CFF1FFF2245
:1012F000FF25FF28FF2CFF2FFF33FF37FF3BFF3F6A
:10130000FF43FF47FF4BFF50FF55FF59FF5EFF6351
:10131000FF68FF6DFF72FF78FF7DFF82FF88FF8D02
:10132000FF93FF99FF9FFFA4FFAAFFB0FFB6FFBC8A
:10133000FFC2FFC8FFCFFFD5FFDBFFE1FFE7FFEEF6
:10134000FFF4FFFAFF0103070F1F3F7FFFFFFEFCC3
:10135000F8F0E0C08005002B802B005580552B0055
:101360002B2B552B555540554080272611241FBE49
:10137000CFEFDAE0DEBFCDBF11E0A0E0B1E0E8E200
:10138000FFE602C005900D92A233B107D9F72AE01B
:10139000A2E3B1E001C01D92AC33B207E1F719E05E
:1013A000C6EBD9E004C02197FE010E947D37C53B02
:1013B000D107C9F70E9459260C9492370C9400006B
:1013C00080E00895CF93DF939C01EB0150E2459FAD
:1013D000C001112464E670E00E946937962FD9019C
:1013E00050E040E0FE01E40FF51FE491ED934F5F04
:1013F0005F4F48305105B1F7985F86ECE92FE61B47
:101400006150E20FF32FF11D6F3F59F4D901A90F7D
:10141000B11D8EEFE1E0E90F983228F48D939E2FF5
:10142000F9CF8083EBCF8EEF8C93E20FF32FF11D7A
:101430001082DF91CF91089580E0E0EDF4E081111A
:101440008FEF002481938193819381930394D1F74B
:1014500008952FB7F89483E08093E9009091E80015
:10146000892F807295FF04C09091F20080E4891B5F
:101470002FBF0895FC018091CF04882311F13FB75D
:10148000F89482E08093E9002091F200822F90E0AE
:101490001816190614F481E090E0882339F0289892
:1014A00044E64093CE044091F1004083222339F07A
:1014B0002091F200211103C02BE62093E8003FBFEA
:1014C00008958FEF9FEF08958091C60481110DC09C
:1014D00082E08093C20484E08093C3041092C50428
:1014E0001092C40481E08093C60482EC94E00895D5
:1014F0003FB7F8948091BE049091BF04A091C004BE
:10150000B091C10426B5A89B05C02F3F19F00196E4
:10151000A11DB11D3FBFBA2FA92F982F8827BC014D
:10152000CD01620F711D811D911D42E0660F771F75
:10153000881F991F4A95D1F708950F931F93CF9352
:10154000DF93809164008E7F8093640080917A00A5
:10155000806480937A0080917A0086FDFCCFC091F0
:101560007800D09179000E94780AAB01BC0180918B
:101570006400816080936400CE01B0E0A0E0DC01F3
:10158000992788278C019D01040F151F261F371FDF
:10159000C901B801DF91CF911F910F9108958F92EA
:1015A0009F92AF92BF92CF92DF92EF92FF926B0128
:1015B0007C010E94780A4B015C01C114D104E10452
:1015C000F104B9F00E94780A681979098A099B091F
:1015D000683E73408105910580F321E0C21AD1086D
:1015E000E108F10888EE880E83E0981EA11CB11C6A
:1015F000E4CFFF90EF90DF90CF90BF90AF909F909F
:101600008F9008954091C2025091C3022091C00270
:101610003091C10242175307B4F49091E8009570DD
:10162000E1F39091E80092FD19C08093F100809160
:10163000C2029091C30201968F739927892B19F4E6
:101640008EEF8093E8008091C2029091C3020196D0
:101650009093C3028093C20281E0089580E00895D0
:10166000EF92FF920F931F93CF93DF93F82E192FD2
:10167000E62E042F81E0860F880F0E94020B83E084
:101680000E94020BCF2DD12FEC0EFD2EF11CCE159A
:10169000DF05B9F007FF13C0FE0184910E94020B21
:1016A000182F80E00E94020B812321968111EFCF39
:1016B000DF91CF911F910F91FF90EF900895888156
:1016C000EDCF81E0F5CFDF92EF92FF920F931F9362
:1016D000CF93DF93D82E8A01EB017B01E40EF51E38
:1016E000CE15DF0559F0D7FE12C0FE0184910E948D
:1016F000020B21968111F4CF0FEF1FEFC801DF918C
:10170000CF911F910F91FF90EF90DF900895888106
:10171000EECF0F931F93CF93DF931F92CDB7DEB71A
:1017200082E0898342E450E06CE979E080E80E943D
:10173000630B0E94640ADC0112960D911C91011545
:10174000110589F0D801ED91FC910280F381E02D23
:10175000BE016F5F7F4FC801099597FD04C0F80176
:1017600000851185ECCF89810F90DF91CF911F917A
:101770000F910895615030F02091F100FC01208319
:101780000196F8CF289884E68093CE0408958F922E
:101790009F92AF92BF92CF92DF92EF92FF920F9300
:1017A0001F93CF93DF936C017B018A0180910F011E
:1017B000882309F45CC08091CF04882309F457C0C2
:1017C0008091C60280FF05C08091E0008260809316
:1017D000E000E801B12C8AEFA82E93E0892E2AE3DD
:1017E000922E209711F4BB20D9F10E94290A811171
:1017F0000AC0AA94AA20D9F161E070E080E090E0EC
:101800000E94CF0AEECF8C171D0611F00CF08C2F22
:101810009FB7F8948092E9002091E80025FD02C06E
:101820009FBFDFCF282F30E0C21BD30BF7018150C1
:1018300020F041914093F100FACFE20EF31EBB205D
:1018400021F09092E800B12CEBCF8091E80085FD6B
:10185000E7CF9092E800BB24B394209709F3F3CF2D
:101860005D9884E68093C502101611063CF081E075
:1018700090E0F6019383828310E000E0C801DF91DD
:10188000CF911F910F91FF90EF90DF90CF90BF907D
:10189000AF909F908F900895CF93DF931F92CDB715
:1018A000DEB76983DC01ED91FC910280F381E02DCC
:1018B00041E050E0BE016F5F7F4F09950F90DF91CF
:1018C000CF91089583E08093E9008091F20088230E
:1018D00019F08AE38093E80008950E94290A90E0B5
:1018E0000895CF93DF931F92CDB7DEB7FC018485B7
:1018F000958597FD08C02FEF3FEF358724870F9020
:10190000DF91CF910895CE0101960E943A0A019786
:1019100019F4898190E0F3CF8FEF9FEFF0CF0F9311
:101920001F93CF93DF931F92CDB7DEB78C01FC01DD
:101930008485958597FF0BC0CE0101960E943A0AD7
:10194000019771F4898190E0F80195878487F80107
:10195000848595850F90DF91CF911F910F91089508
:101960008FEF9FEFF1CFFC018485958597FD0BC02C
:101970009FB7F89482E08093E9008091F2009FBFC6
:1019800090E0019608959FB7F89482E08093E90073
:101990008091F2009FBF90E008952091B902E091FC
:1019A000B702F091B802CF0102969093B8028093EB
:1019B000B702222319F08591949108958081918135
:1019C0000895CF92DF92EF92FF92CF93DF930E9420
:1019D000CD0C811520E8920791F4809171008D7FE4
:1019E0008093710010929100469847981092B60229
:1019F000DF91CF91FF90EF90DF90CF90089521E09D
:101A00002093B602813020E8920751F48091B4020D
:101A10009091B5029093B8028093B7020E94CD0CCA
:101A200097FD05C02091B302222309F454C02091F0
:101A3000B202211150C021E02093BA02EC01DF77FD
:101A4000209709F04BC081E08093BB0246983FE9A4
:101A5000C32E3FE0D32EE12CF12CCAEFD0E0E09171
:101A60002F0AF091300A0995811103C081E080931B
:101A7000BB028091BA02882329F08091BB0288239F
:101A800009F43FC047980E94CD0C0097F1F19C01EA
:101A9000DE010E944637DC01CB0129E0B595A79510
:101AA000979587952A95D1F7109290002AE0209378
:101AB0009100D0929900C09298008093BC029093BC
:101AC000BD02A093BE02B093BF02809171008260FC
:101AD000809371008DCF1092BA02B0CF9E0150E07A
:101AE00040E060E472E48FE090E00E940537690115
:101AF0007A0181E0C81AD108E108F1081092BB020E
:101B0000AECF4699BFCF479ABECF8FEF9FEFDC0194
:101B1000CBCF9C01E1E7F0E090819D7F908381E055
:101B20008093B9023093B8022093B7023093B50284
:101B30002093B4020C94E10C4F925F926F927F92CB
:101B40008F929F92AF92BF92CF92DF92EF92FF92CD
:101B50000F931F93CF93DF934C015901FC2DC02F9E
:101B6000D0E0CE01880D991D181619060CF067C03B
:101B70009B012E0D311D121613060CF060C060344F
:101B800071050CF05CC04115510509F458C0262FB1
:101B90002770F22EDB0177FD179633E0B595A795F8
:101BA0003A95E1F73A2F77FF04C0FF2011F03FEF9D
:101BB0003A0F662777276819790997FC02C070E009
:101BC00060E0803891050CF44BC090E89819961BA2
:101BD000A32F032E000CBB0B1A2F10953F3F0CF0C8
:101BE00010E021E08E2D877009F420E0E694E69461
:101BF000E694E20EAE0DB11D19971CF028E0E22E1E
:101C0000E31AE11A310F20E83203D0011124A80DA4
:101C1000B91DA60FB71F019F600D711D1124460F3E
:101C2000571F0F2D0F2C000C110BF33009F41CC1A2
:101C3000C8F4F13009F4D0C0F23009F47CC0DF916F
:101C4000CF911F910F91FF90EF90DF90CF90BF90B9
:101C5000AF909F908F907F906F905F904F9008957E
:101C6000902FB5CFFA3FB1F1232F2E0DFB3F39F75F
:101C7000321729F3BD0160537B4FD12CC12CC916FB
:101C800008F0A4C0FA01EC0DFD1DE491F0E04F0155
:101C9000002E02C0880C991C0A94E2F737FD06C09A
:101CA000FB018081E82CE0948E218083FF2061F08D
:101CB000373054F45B01F0E8AF0EB11CE92CE0942E
:101CC000F50180818E218083FFEFCF1ADF0A6F5FDD
:101CD0007F4FD5CF232F2E0D321709F4B0CFBD0182
:101CE00060537B4FD12CC12CC91608F069C0FA0192
:101CF000EC0DFD1DE491F0E04F01002E02C0880CB8
:101D0000991C0A94E2F737FD04C0FB018081882901
:101D10008083FF2051F0373044F45B01F0E8AF0ED0
:101D2000B11CF501808189298083FFEFCF1ADF0A7A
:101D30006F5F7F4FD9CF6FEF70E00F2C02C0660F3F
:101D4000771F0A94E2F760957095772E232F2E0D5A
:101D5000321709F474CFFD01E053FB4F6F01B12C32
:101D6000A12CA91638F5FA01EA0DFB1DE491F0E06B
:101D70002F01002E02C0440C551C0A94E2F737FDD7
:101D800005C0F6018081862384298083FF2059F0D5
:101D900037304CF44601F0E88F0E911CF40180813D
:101DA000872185298083FFEFAF1ABF0A8FEFC81AFA
:101DB000D80AD7CF3F5F4C0F5D1FA058BF4FC8CF89
:101DC0003F5F4C0F5D1FA058BF4F86CF3F5F4C0F4A
:101DD0005D1FA058BF4F4CCF6A0D7B1D232F2E0DCA
:101DE000321709F42CCFFD01E053FB4F6F01B12CEA
:101DF000A12CA91688F5FB01EA0DFB1D8490912CFE
:101E0000002E02C0880C991C0A94E2F780949094EA
:101E1000FA01EA0DFB1D6490712C002E02C0660CC5
:101E2000771C0A94E2F737FD05C0F601808188210E
:101E300086298083FF2049F037303CF4F601E058D2
:101E4000FF4F8081892187298083FFEFAF1ABF0A66
:101E50008FEFC81AD80ACDCF3F5F4C0F5D1F6C0FB4
:101E60007D1FA058BF4FBCCFC92ED12CFA01E60F61
:101E7000F71FA053BB4F00E810E00C191D09CC1947
:101E8000DD09BE01660F771F41E050E06A010F2CAB
:101E900001C0CC0C0A94EAF7592F2E2D792ECF933E
:101EA000DF93ED01EF96EF9622968590A590FF20A7
:101EB00059F08C9C4001AC9C500137302CF4E880E8
:101EC000B094EB20E928E99233233AF0EC90A09407
:101ED000EA20E828ED920C946E0F11965A9529F796
:101EE0002A9551F0572D33951124E60FF11DA00FBF
:101EF000B11DC00FD11DD9CFDF91CF9111249FCE3D
:101F0000BC0190E080E00C94CF0A8FB18095807F77
:101F1000669B88601C9B8460089580389105BCF4A2
:101F200060347105A4F420E191E061FD94E060FD6E
:101F3000990F62FD9295687F269FD0011124A80F0A
:101F4000A053BB4F8C91442319F0892B8C93089597
:101F500090958923FBCF0895CF93DF93EC01809177
:101F60009E03882389F08091A503882301F1809145
:101F7000AC038823F9F08091B303EEEAF3E0882301
:101F800029F0F0E0E0E00FC0E9E9F3E084E0CE38CA
:101F9000D80799F48FEF86838FEF858371836083F1
:101FA000538342832483CF01DF91CF910895E0EAE8
:101FB000F3E0ECCFE7EAF3E0E9CFA9EDB2E090E09F
:101FC00084E0CD39D80731F48EEFE5CF9F5F1896C6
:101FD000983111F3CA17DB07C9F79683DDCF1F933A
:101FE000CF93DF93EC01162F8A85863010F486E0BC
:101FF0008A8788E08B878D85181748F086E099E0FE
:102000000E94890D1D86DF91CF911F9108958CE567
:1020100098E00E94890D8D85811B8D87F4CF2091DA
:10202000AC044FE0249F9001112422573B4F281706
:10203000390739F470937904609378048AE58093C2
:10204000D502089590E2699FF0011124E80FF11D77
:10205000F595E795EE5CFE4F908180FF08C09F707C
:1020600080E1489FA0011124942B90830895907FD4
:10207000492B40830895803220F4683110F40C9489
:1020800022100895803290F4683180F490E2699FC4
:10209000B0011124680F711DFB01F595E795EE5C09
:1020A000FE4F808160FD82958F7008958DE00895C8
:1020B000672F892F0E94421091E0893008F490E048
:1020C000892F0895AF92BF92CF92DF92EF92FF9245
:1020D0000F931F93CF93DF93C82EE42EFF24F39426
:1020E000F80E0FEF060F1FEF180FC1E0C60F93E0B9
:1020F000D92EBF2CBC18D0E0AD2EA10E602F8A2D9A
:102100000E9442108E1519F16C2F8A2D0E944210E8
:102110008E15E9F0AD2EA00E6A2D812F0E9442107F
:102120008E15A9F06A2D8F2D0E9442108E1579F020
:10213000DF5FDD11E1CF82E0D82EDD0EF394015098
:102140001150CF5F81E4D812D4CFBB24BA948B2D29
:10215000DF91CF911F910F91FF90EF90DF90CF9083
:10216000BF90AF90089590E2699FB0011124860F4F
:10217000972F911DFC01F595E795EE5CFE4F908140
:1021800080FF04C0892F82958F700895892FFCCF1E
:102190000E94421091E08D3008F490E0892F08955C
:1021A0000F931F93CF93DF93182F062FD0E06FEF7D
:1021B000600F0E94C810C0E0882311F0D1E0C1E098
:1021C000602F81E0810F0E94C810882311F0D26037
:1021D000CF5F61E0600F812F0E94C810882311F04B
:1021E000D460CF5F602F8FEF810F0E94C8108823CB
:1021F00011F0D860CF5F8D2F9C2FDF91CF911F9171
:102200000F9108952F923F924F925F926F927F921B
:102210008F929F92AF92BF92CF92DF92EF92FF92F6
:102220000F931F93CF93DF937C016B018A01E90128
:1022300097FF02C081509F4F892E992E990C9908C3
:10224000C80117FF02C081509F4F292E392E330C31
:1022500033088214930409F45FC0821493040CF0D1
:10226000DFC054018FEFA81AB80ABA2CAA24AE18FE
:10227000BF0844244394512CBE016C197D09072EDC
:10228000000C880B990B982F872F762F66279801C3
:102290002E193F0937FF03C0319521953109032ECF
:1022A000000C440B550B0E94053766246A947FE7A7
:1022B000772E211580E838074105510554F439017E
:1022C000213030484F4F5F4F24F46624639460E818
:1022D000762E9301D5010E94833720E031E040E063
:1022E00050E00E9405375601A20EB31E840C951CC7
:1022F000240C351CC501B7FE02C081509F4FA60CAF
:10230000B71C692F882D0E94C81081119DC0840CB4
:10231000951C2814390471F7C601D7FE02C08150FC
:102320009F4FA92EB92EBB0CBB08CE01D7FF02C010
:1023300081509F4F492E592E550C5508A414B504B1
:1023400009F45AC0A414B5040CF074C035018FEF21
:10235000681A780A762C66246C187D088824839481
:10236000912CB8016E197F09072E000C880B990B70
:10237000982F872F762F66279E012C193D0937FF4E
:1023800003C0319521953109032E000C440B550BE8
:102390000E940537CFEFDFE7211580E838074105B8
:1023A000510544F4E901213030484F4F5F4F14F498
:1023B000C1E0D0E89E01D3010E94833720E031E0E4
:1023C00040E050E00E940537E20EF31EA80CB91C55
:1023D000480C591CC701F7FE02C081509F4FEC0EFC
:1023E000FD1E6A2D892F0E94C81081112DC0A80CD6
:1023F000B91C4A145B0471F781E0DF91CF911F9102
:102400000F91FF90EF90DF90CF90BF90AF909F9093
:102410008F907F906F905F904F903F902F90089596
:10242000C70160E071E00E9469375C0144244A946E
:10243000542C22CFC60160E071E00E9469373C0154
:1024400088248A94982C8DCF80E0D7CF9091110169
:10245000981731F0809311011092AE041092AD04E0
:1024600008951092D80281E090E090930301809348
:10247000020180931001ECECF2E084E0808315828D
:102480001086168217821182128213821482EEE85D
:10249000F4E020E831E0318320833383228390E22B
:1024A000948384E6868713861286148616821582A4
:1024B0001086178211868587328B218B20E832E0C7
:1024C000308B2787938B858F128E118E138E158AF2
:1024D000148A178A168A108E848F84E00C94261230
:1024E000DC01605284E0689FB00111246356794F8B
:1024F000FB01849184278C933196E491E427119613
:10250000EC931197FB013296E491E4271296EC9339
:102510001297FB013396E491E4271396EC93089508
:10252000EF92FF921F93CF93DF93122F119520E824
:10253000629FE0011124C40FD11DC053DB4F7C0109
:10254000F7016491FFEFEF1AFF0A662331F0412F84
:10255000CE010E9470122496F3CFDF91CF911F918C
:10256000FF90EF90089580910001909101019C01EE
:102570003695322F22273795279528273927C901E5
:10258000892F9927869528273927922F88278227F0
:10259000932790930101809300010895EF92FF9299
:1025A0000F931F93CF93DF93FC012091B903822FE8
:1025B0008E7FC5EBD3E0C9F03091DE03832F8E7F91
:1025C000CAEDD3E091F090910304892F8E7FD1F171
:1025D00036952695CAEDD3E0321710F0C5EBD3E05F
:1025E00096952C812695921768F1F983E8837B8371
:1025F0006A838C8140FB80F98C837E0185E2E80E42
:10260000F11C8E010B5F1F4FE016F106F1F00E94E6
:10261000B3128F718051F80180830E94B3128F71C1
:102620008051F80181830E94B3128F718051F801AB
:1026300082830E94B3128F718951F80183830C5FEA
:102640001F4FE2CFCFEFD3E0D0CF8C8181708C626F
:102650008C83DF91CF911F910F91FF90EF900895A0
:1026600080910201909103019C013695322F22271F
:102670003795279528273927C901892F99278695C6
:1026800028273927922F88278227932790930301A1
:102690008093020108952F923F924F925F926F9222
:1026A0007F928F929F92AF92BF92CF92DF92EF92E2
:1026B000FF920F931F93CF93DF93CDB7DEB72C9785
:1026C0000FB6F894DEBF0FBECDBF982E6C87842E58
:1026D000722E102FEB8255245A94580E81E0890DEA
:1026E0008983A92CB12C462E4A94962F9F5F9A83FA
:1026F000C62ED12C112341F09B81992329F040E073
:10270000692F812F0E943B1088E0881508F45EC174
:10271000871508F4B7C11B8681E09C85923008F4C8
:1027200080E09B8580FB94F99B8781E0891508F008
:1027300080E09B8580FB97F99B87E92CF12C882D05
:1027400090E09E838D836C01CE0CDF1C81E09EE1C6
:10275000C916D1040CF080E09B8580FB95F99B871E
:102760008C85082F10E0872D90E098878F835C017F
:10277000A00EB11E81E096E1A916B1040CF080E034
:102780009B8580FB96F99B878C85825089834424A6
:102790004A94490C682F842D0E94B310682C690C50
:1027A000882349F06981862D0E94B310882319F08F
:1027B0009B859F7E9B873C843A948EEF890D8A830C
:1027C000632D0E94B3105C84570C882349F0652D5B
:1027D0008A810E94B310882319F09B859F779B877D
:1027E00081E0860D8C83632D0E94B310882359F0FD
:1027F0006C856F5F670D862D0E94B310882319F0DA
:102800009B859F7D9B8781E0850D8B83682F842D21
:102810000E94B310882349F06B81862D0E94B3106B
:10282000882319F09B859F7B9B876981842D0E945B
:10283000B31081110AC0632D8A810E94B3108111E7
:1028400004C08B858F7E8F778B876981862D0E9450
:10285000B31081110AC0632D8C810E94B3108111C5
:1028600004C09B859F7E9F7D9B876B81862D0E94E8
:10287000B31081110AC0652D8C810E94B3108111A3
:1028800004C08B858F7B8F7D8B876B81842D0E940D
:10289000B31081110AC0652D8A810E94B310811185
:1028A00004C09B859F7B9F779B87632D892D0E940A
:1028B000B310882349F0632D8FEF860D0E94B3106B
:1028C00022242394811101C0212C6C85862D0E9425
:1028D000B310882349F06FEF650D862D0E94B31069
:1028E00091E09987811101C01986652D892D0E947B
:1028F000B310882349F0652D8FEF860D0E94B31029
:1029000091E09A87811101C01A866C85842D0E94FE
:10291000B310882341F06FEF650D842D0E94B31032
:1029200091E0811101C090E0211005C08B858F7E60
:102930008F7D8F778B878985811105C08B858F7EF1
:102940008F7D8F7B8B878A85811105C08B858F7DDD
:102950008F7B8F778B87911105C09B859F7E9F7B97
:102960009F779B87EC14FD040CF0FCC02E2C632D8C
:102970008E2D0E94B310811103C08B8581608B87DF
:10298000652D822D0E94B310811103C09B85946038
:102990009B878C85823048F06981822D0E94B3101C
:1029A000882319F09B859F7E9B8786E1A816B1043A
:1029B0004CF46B81822D0E94B310882319F09B8503
:1029C0009F7B9B878FEFE81AF80ACCCF871408F417
:1029D00059C00FEF882D8650990B1C019C85970DCF
:1029E0009B830E943013B1010E94553793E0F92E6A
:1029F000F80E015009F48FCE1F2D190D642D812F73
:102A00000E94B310882369F36B81812F0E94B31059
:102A1000882339F3EE24EA94E10E642D8E2D0E9472
:102A2000B3108823F1F26B818E2D0E94B31088239E
:102A3000C1F266246394610E642D862D0E94B3104A
:102A4000882379F26B81862D0E94B310882349F286
:102A50000E943013272C312CB101625071090E9461
:102A600055379A81980F9B830C852C0C3D1C0215C1
:102A700013040CF06CC04DE0602F812F0E943B10BE
:102A80000F5FF5CFEE24EA94872D8650990B8C01C9
:102A9000282C290C0E943013B8010E94553723E0DE
:102AA000F22EF80EEA94EE2009F435CE9C859F0DA7
:102AB0009B83692F852D0E94B310882359F36B8166
:102AC000822D0E94B310882329F36B806A94662DAF
:102AD000852D0E94B3108823E9F2662D822D0E9475
:102AE000B3108823B9F26B806394662D852D0E9404
:102AF000B310882379F2662D822D0E94B3108823AB
:102B000049F20E943013282C312CB1016250710916
:102B10000E9455371981180F092D2A0C3B1C0215EC
:102B200013043CF44DE06B81802F0E943B100F5F3B
:102B3000F6CF2FEF270D2F19EB80012F482D662D93
:102B4000892D0E944B137F2CF82C8F2CD3CD4FEF67
:102B5000480D4F19EB80012F272D6C85862D0E9483
:102B60004B13F3CF0A151B057CF5F02E602F842D37
:102B70000E94B310811103C09B8598609B876F2DC5
:102B8000862D0E94B310811103C08B8582608B87D4
:102B900091E0991548F46F2D8A810E94B310882323
:102BA00019F08B858F778B879EE1C916D1044CF481
:102BB0006F2D8C810E94B310882319F08B858F7D37
:102BC0008B870F5F1F4FCECF9B8595FB112710F989
:102BD00096FB002700F997FBFF24F0F894FF08C04C
:102BE0000E94301364E670E00E945537449780F1EC
:102BF000FF2041F00E94301364E670E00E945537D8
:102C00004497B0F1002341F00E94301364E670E075
:102C10000E9455374497E0F1112309F449C00E94FE
:102C2000301364E670E00E945537449708F040C0C6
:102C300010E000E08F81988508171907CCF56C85A6
:102C4000600F40E0862D0E943B100F5F1F4FF2CFB8
:102C500010E000E08D819E81081719074CF540E0D7
:102C6000632D892D800F0E943B100F5F1F4FF2CF05
:102C700010E000E08F81988508171907CCF46C8567
:102C8000600F40E0842D0E943B100F5F1F4FF2CF7A
:102C900010E000E08D819E81081719074CF440E098
:102CA000652D892D800F0E943B100F5F1F4FF2CFC3
:102CB000871037C096E09815A0F58C858F5F8983C3
:102CC00093944DE0682F892D0E943B106A946A947A
:102CD0004DE06981862D0E943B105A945A944DE034
:102CE000652D862D0E943B104DE0652D892D2C967B
:102CF0000FB6F894DEBF0FBECDBFDF91CF911F910D
:102D00000F91FF90EF90DF90CF90BF90AF909F908A
:102D10008F907F906F905F904F903F902F900C948A
:102D20003B102C960FB6F894DEBF0FBECDBFDF91DF
:102D3000CF911F910F91FF90EF90DF90CF90BF90B8
:102D4000AF909F908F907F906F905F904F903F904B
:102D50002F900895FC0120813181F901E056F1099D
:102D60006E177F07A4F0205A3F4F261737077CF0D5
:102D7000FC01828193819C0120563109421753073F
:102D800034F020543F4F81E0241735070CF480E0E5
:102D90000895FC0140815181FB0120813181F901BD
:102DA000E05CF1094E175F07BCF020543F4F241739
:102DB000350794F0FC0142815381FB0182819381AC
:102DC0009C01205C31094217530734F020583E4FD4
:102DD00081E0241735070CF480E00895FB0122817F
:102DE000338140815181FC016281738180819181B5
:102DF0000C940211262FFC01428153816081718164
:102E00000E94AC0F21E0892B09F420E0822F089565
:102E10000F931F93CF93DF93EC01062F142F642F92
:102E2000802F0E944210893090F5612F8E810E9480
:102E30004210893060F56F81802F0E9442108930E6
:102E400030F5E9EDF2E0202F002E000C330B412F7E
:102E5000012E000C550BEC17FD0761F08481877083
:102E6000843041F086818217130621F4878184170C
:102E7000150669F0389683E0E939F80761F70E83A3
:102E80001F8381E0DF91CF911F910F91089580E022
:102E9000F9CFFC0184818770843039F0FAE08F9F8C
:102EA000C00111248B58994F089590E080E0089557
:102EB000CF93DF93C9EDD2E09C819770943099F461
:102EC000688379834A835B8387708C837E835F8387
:102ED000CE010E9449170296FC0184918F778D8361
:102EE000DF91CF9108952896F3E0C939DF0721F7E4
:102EF000F7CF20917A04E4E2F4E050E040E0942F30
:102F00004217A0F190917A049C3008F47EC0292FDA
:102F10002150330BB90127E0269FF001279FF00DC8
:102F20001124EC5DFB4F2681281708F04FC080E08C
:102F300047E0282F30E0261737070CF06BC0429F80
:102F4000D001439FB00D1124AC5DBB4F2F5F3F4FAD
:102F5000429FF001439FF00D1124EC5DFB4F242FA5
:102F600001900D922A95E1F78F5FE3CFBA01368188
:102F70004F5F5F4F3796831710F62C3008F531E01E
:102F8000320F30937A0437E0239FD0011124AC5DD7
:102F9000BB4FAD014750510937E0FA0101900D9246
:102FA0003A95E1F72150DA01921798F39C3009F431
:102FB000A9CF37E0939FC00111248C5D9B4F0895EA
:102FC00080E06150710947E0911103C090E080E01A
:102FD0000895282F30E026173707E4F4429FD001E8
:102FE000439FB00D1124AC5DBB4F2F5F3F4F429FFD
:102FF000F001439FF00D1124EC5DFB4F242F019055
:103000000D922A95E1F78F5FE4CF81E0890F8093DD
:103010007A04CFCF9150CDCF2F923F924F925F92B3
:103020006F927F928F929F92AF92BF92CF92DF92D8
:10303000EF92FF920F931F93CF93DF93CDB7DEB73D
:103040006C970FB6F894DEBF0FBECDBF5C01322F78
:10305000330F8E2D90E09F838E83A22FA150BB0B48
:10306000CD0102C095958795EA94E2F7889FF0011B
:10307000899FF00DF00D1124CF018C5A9A4F9B8738
:103080008A87862F880F880B962F91958923E32FA7
:10309000F0E0DF01A60FB11D67FDBA95A138B105BB
:1030A0000CF4E2C050E8561B5C8F242F2195942F1E
:1030B000990F990B29232F87E40FF11D47FDFA95EE
:1030C000E134F10514F030E4341B67FD60E0D12CED
:1030D000AA27BB27AC19BD09BE87AD8747FD40E0D5
:1030E000B0E14B02F0011124DF01A078B370B98B7D
:1030F000A88B712C612C90E01B8E1A8ED12CC12CC8
:10310000512C412CF12CE12C681B6A8B682F70E04C
:103110007C8B6B8BAC8DA250BB0BBE8BAD8B632FAE
:103120006250770B788F6F8B21E0240F7F85271BF0
:10313000298FAA89A80FBC8D8B1708F0FAC00A2E18
:10314000000CBB0BFD01EF5AF64F208151E0588770
:10315000201708F01886201708F0E5C0EB89FC89D5
:10316000E60DF71D6D897E89E617F7070CF47EC022
:10317000992309F4DEC0B7016C217D217C836B8328
:1031800070E060E0312C212C142F1770C888D9888A
:10319000AC0DBD1DA053BB4F2C91E12FF0E0E45BC3
:1031A000FA4F9491DF84ED2CF12C1986812CF0E0FC
:1031B0001A82912CEC86E31608F0AEC091109F2E77
:1031C000CF88D88CEC14FD040CF092C0F7010E806F
:1031D00002C0F595E7950A94E2F7CA84DB84EC0D0A
:1031E000FD1DE491F0E0EE0FFF1FE45DFA4FC59086
:1031F000D490EB81FC81EC21FD2151E05D83EF2B2C
:1032000009F41D82E1E0E983F201EC21FD21EF2BBD
:1032100009F41982EA8DFB8DCE22DF22E1E0CD2870
:1032200009F4E0E0CA80CC2009F466C0882009F4E3
:103230006FC0292B1F5F990F183059F42C93998D6B
:10324000CC849C0D903414F4A058BF4F2C9191E085
:1032500010E05FEFE51AF50AFD81F987F82D8E2E53
:103260009A80C980CA82A6CF3C8F1FCF0E8002C031
:10327000F595E7950A94E2F76A857B85E60FF71FD7
:10328000649170E0660F771F660F771FF501E60FF8
:10329000F71F9923B9F025903490FB013296EA0D7F
:1032A000FB1D65917491ED85FE856E277F27F101E9
:1032B000E623F723EC20FD206F01CE28DF28DC82F7
:1032C000CB8262CF45905490FB013296EA0DFB1DF4
:1032D000E590F4906D857E856E257F257B8F6A8FC6
:1032E000642175217C836B836A8D7B8D12014CCFA9
:1032F0001D82E0E0198296CFD984D11009C09110C7
:1033000007C05981552309F495CFEE2309F492CFD4
:10331000F92FF0952F238ECF2C93CA8CDB8C7B8FCB
:103320006A8F720121018F5F2FEF621A720A9885EE
:1033300000CF6C960FB6F894DEBF0FBECDBFDF9105
:10334000CF911F910F91FF90EF90DF90CF90BF90A2
:10335000AF909F908F907F906F905F904F903F9035
:103360002F900895CF92DF92EF92FF920F931F93C9
:10337000CF93213490F4CE2CC42F162F32E0E32EBD
:10338000213238F4422F50E04131510574F0EE24DF
:10339000E3944C2F612F0E940C18CF911F910F9135
:1033A000FF90EF90DF90CF900895E12C233088F7C5
:1033B000862F062E000C990BAC014F5A564F7A01FE
:1033C000FA018081223061F5801778F4C62ED12C65
:1033D0006C2F70E040E0C6010E948D0F61E06C0F21
:1033E00070E040E0C6010E948D0FF70181818017D7
:1033F000A0F61F5F012F10E06C2F70E040E0C801C5
:103400000E948D0F61E06C0F70E040E0C801CF9129
:103410001F910F91FF90EF90DF90CF900C948D0F44
:10342000801708F0BACF6C2F70E040E0812F90E059
:10343000EECF8F929F92AF92BF92CF92DF92EF9298
:10344000FF920F931F93CF93DF938901ACE7B4E012
:103450002D913C9111977C01E21AF30A12968D91FD
:103460009C911397FB01E81BF90B1596CD91DC910C
:1034700016971796CD90DC909E01D7010E94833756
:10348000872E982EA92EBB24A7FCBA949601DF01A3
:103490000E948337672F782F892F992787FD9A9568
:1034A000861A970AD8018D929C92D7010E94833781
:1034B000C72ED82EE92EFF24E7FCFA949E01DF01E7
:1034C0000E948337672F782F892F992787FD9A9538
:1034D000C60ED71EFA01D182C082DF91CF911F9113
:1034E0000F91FF90EF90DF90CF90BF90AF909F90A3
:1034F0008F9008952F923F924F925F926F927F929A
:103500008F929F92AF92BF92CF92DF92EF92FF92F3
:103510000F931F93CF93DF93CDB7DEB7A5970FB669
:10352000F894DEBF0FBECDBF5A0149010F8BEE8E5E
:10353000C98E9E012B5F3F4FAE01495F5F4F0E94D6
:10354000191A9E012F5F3F4FAE014D5F5F4FB401CF
:10355000C5010E94191A2B813C8137FF0BC089815C
:103560009A81919581959109880F991F281739079C
:103570000CF4F6C3EF81F8858D809E801E161F0621
:103580003CF4A401440F551F4E175F070CF4E8C329
:1035900069817A8140E2841691040CF0E4C06032C3
:1035A00071050CF4DDC300E210E07801E818F908B9
:1035B0005B01A818B908C7019695982F8827979599
:1035C0008795B5010E9469376B872E1B3F0B2E9D97
:1035D000C0012F9D900D3E9D900D1124B5010E94BC
:1035E0006937E60FF71FF887EF831E830D8350E8D6
:1035F0005C871F8AAD80BE80AF81B88521E430E052
:103600000E948B3795010B2C000C440B550B0E942C
:103610000537390109811A81C901805C9F4F9A875A
:103620008987AB81BC8121E430E00E948B3798010F
:10363000012E000C440B550B0E94053769019FE3D6
:10364000C90ED11CE985FA85EC15FD050CF088C37F
:103650001C141D040CF084C3E038F1050CF080C389
:1036600020E830E2C901B5010E9469372B01C90188
:10367000B8010E9469377E876D87F7FF2AC000EC8A
:103680001FEF0619170946018E1A9F0A092C000C14
:10369000AA08BB084C856B85461B550B9A01D801BF
:1036A0000E948337A50194010E9405377B85720F24
:1036B0007B872D853E8524193509D8010E948337E3
:1036C000A50194010E940537420E531E1F8A1A86D7
:1036D0001986C601E985FA858E1B9F0B9C8B8B8B07
:1036E0007C0197FF03C0FFEFEF1AFF0AF594E79400
:1036F0002D853E85421653060CF064C02419350909
:103700003D8F2C8F8824839479857B8FDA8AC98AB0
:1037100080E8C816D10424F0EFE7F0E0FA8BE98BDB
:10372000F989FD8B120109851A85282D082C000CBA
:10373000330B39A328A3382D30953AA3F801EF5263
:10374000F74F40814F8717FD08C0F801EF5AF64F39
:103750008081821513040CF4E1C2398D332309F4FE
:10376000F6C020E0E0C26032710544F500E210E0EE
:103770005801A61AB70A861A970A40E8B501460307
:10378000C001479F900D1124B4010E946937605811
:103790006C87E21BF30BEA9DC001EB9D900DFA9D37
:1037A000900D1124B4010E946937260F371F3C8306
:1037B0002B831A8309831B861E8E1CCF70E87C879F
:1037C0001B8618CFA2016D857E85461B570B5D8F2A
:1037D0004C8F88248A9498CF40E0822D91E429165A
:1037E00031040CF080E46F85680F9F84981A5801AB
:1037F000BB2469150CF439C067FD37C0EFE3E91548
:10380000A4F1E92D97FCE0E0862F60340CF08FE303
:10381000F0E1EF9FD0011124A078B37095012053FF
:103820003B4FA20FB31F50E1859F3001112470E878
:10383000672273E07722260D371DE770F0E0E35B27
:10384000FC4E877090E08B5B9C4EA217B30709F08B
:1038500062C02491FC018491E82FE2238E2F809591
:103860009C918923E423E82BEC9370E040E0C501B0
:103870000E948D0F692D70E040E0C5010E948D0F00
:10388000F801EF5AF64F8081811105C08091D00870
:103890008F5F8093D0082FEF2216310409F00CF4CB
:1038A00054C03FEF308377247394C016D10609F4D7
:1038B0005CC08C8D9D8DE81AF90A88A199A1820DB2
:1038C000931D6F84681A5801BB24EAA18E0F8219D8
:1038D0009F84980EF7FECBC028A139A1220E331E7B
:1038E0004B895C89E40EF51E772099F0F7FE11C034
:1038F00051E2251631046CF4692D620D70E040E050
:10390000C5010E948D0F662D70E040E0C5010E9448
:103910008D0F6818DFCFE4915E2F50957C9157236F
:10392000E423E52BEC93A058BF4F2A173B0711F077
:103930004C93F9CFD901FC018491982F90952C914B
:1039400092234823492B4C9390CF2082ACCF4B8DB0
:103950004017110621F44F5F4B8F712CA6CF698958
:103960007A8906171707CCF70D8B6B8D7D89671742
:1039700009F4F6C184E0481651040CF4F1C1ED8558
:10398000FE8534970CF4ECC1FC852B85F21709F405
:10399000E7C145E5842E43E1942EF401649030E0C4
:1039A0003A8B298B5C85452F50E05F8F4E8F421BF1
:1039B000530B59A348A36D857E85641975097E87CD
:1039C0006D879D89892F90E09DA38CA3662009F4C3
:1039D000C7C16A94F401319644913196149131969D
:1039E0002491E4E08E0E911CF401D490FB852F17F6
:1039F00068F33C85341750F3ED2CF12C4F17C8F4C5
:103A00004217E1F150E0A989BA89A41BB50BB701AF
:103A1000611B7109A69FC001A79F900DB69F900DD5
:103A20001124622F70E0641B750B0E946937160F1A
:103A30004F2F5C85521718F52417B9F030E0AE8D82
:103A4000BF8DA21BB30B612F70E06E197F09A69F7B
:103A5000C001A79F900DB69F900D1124642F70E0B8
:103A6000621B730B0E946937D60E2C8508C00F5F4E
:103A70001F4F003811050CF461CE77CF4B85842F92
:103A800090E069897A89861B970B9695982F8827ED
:103A90009795879568A179A10E946937062F822F93
:103AA00090E0E989FA898E1B9F0B9695982F8827BD
:103AB0009795879568A179A10E946937462F202F95
:103AC00030E0AB89BC890E948B3727E095958795BC
:103AD000779567952A95D1F7A984BA84A60EB71E63
:103AE000242F30E00E948B3737E0959587957795A6
:103AF00067953A95D1F729843A84260E371E2A1401
:103B00003B040CF463CF2D853E85029FC001039FCB
:103B1000900D1124880F892F881F990B840D951DF6
:103B2000B901469F9001479F300D1124220F232F8A
:103B3000221F330B240D351DD29E7001D39EF00C35
:103B4000112476E0F594E7947A95E1F7E0E2F0E06D
:103B5000E21BF30BEE0EFF1E189F9001199F300D14
:103B600011248901E6E015950795EA95E1F720E231
:103B700030E0281B390B020F131F17FFA4C0F7FCFE
:103B800025CF950122193309209FC001219F900D57
:103B9000309F900D1124B701601B710B0E94693793
:103BA000A60EB71E10E000E030E4E316F1040CF0BE
:103BB00093C05B8DC52ED12CAC14BD040CF0A5C0F8
:103BC0002A143B04A1F0A6014A195B099701201BA6
:103BD000310B429FC001439F900D529F900D1124C5
:103BE000B1016A197B090E946937060F171FB101DD
:103BF0006C197D09788B6F875B0177FF03C07FEFBE
:103C0000A71AB70AB594A7940E151F050CF07FC02C
:103C1000C701801B910B988F8F8B81E096012F52EB
:103C2000374F3A8F298F482F082E000C550B5D8F88
:103C30004C8F50EE581B5BA32C143D040CF4C6CEE5
:103C40006CA17DA16C157D050CF4C0CEE98DFA8DBB
:103C50007190FA8FE98F0AA3960133273E8B2D8B43
:103C600060EE600F670D70E040E0C9010E948D0FAB
:103C70004F89588DA41AB50A8C8D9D8D800F911F88
:103C80005BA1850F6AA1861B780EB7FE18C08C8DCC
:103C90009D8D080F191FEF85F889AE0EBF1EB7FE68
:103CA00008C0672D600F70E040E08D899E890E94FA
:103CB0008D0F2C143D0449F7E016F10631F7FFEFA4
:103CC000CF1ADF0AB9CF40E4E416F1040CF471CF47
:103CD000003411050CF07ACE4FE350E04E195F0925
:103CE000950122193309429FC001439F900D529FB5
:103CF000900D1124B8016E197F090E946937260EB4
:103D0000371E9FE3E92EF12C54CF650170CFF801E7
:103D1000EE19FF09F88FEF8B8FEF80CF298D80E0B0
:103D2000222341F0298DC80180959095817022232E
:103D300009F40DCE5F89552331F069857A856017C6
:103D4000710709F449CD7E8D772321F0C016D10685
:103D500009F442CD4FEF882309F43FCD45E53DCD31
:103D6000A5960FB6F894DEBF0FBECDBFDF91CF9101
:103D70001F910F91FF90EF90DF90CF90BF90AF9089
:103D80009F908F907F906F905F904F903F902F907B
:103D90000895CF92DF92EF92FF920F931F93CF93EC
:103DA000DF9300D000D0CDB7DEB77A0169019E0164
:103DB0002D5F3F4FAE014F5F5F4F0E94191A0B817D
:103DC0001C81003211056CF0A981BA81B7FF0BC0CC
:103DD00088279927801B910B880F991FA817B9076F
:103DE00054F480E026C0109731F0C801880F991F65
:103DF0008A179B07B4F321E430E00E948B379801C7
:103E0000012E000C440B550B0E940537F70131833E
:103E1000208380E890E2B8010E946937F60171833F
:103E20006083F70180819181805C9F4F91838083C3
:103E300081E00F900F900F900F90DF91CF911F9125
:103E40000F91FF90EF90DF90CF900895AF92BF92C7
:103E5000CF92DF92EF92FF920F931F93CF93DF9356
:103E600000D000D0CDB7DEB75C01CB01BA01122F74
:103E70009E012D5F3F4FAE014F5F5F4F0E94C91EF5
:103E8000882309F447C08B819C81189F6001199F8A
:103E9000D00C1124D7FE03C02FE7C20ED11CCC0CCE
:103EA000CD2CCC1CDD08F9802F2D3A81203831052E
:103EB00014F02FE730E037FF02C030E020E02F524F
:103EC000374FF90110810130C9F198F10330C1F188
:103ED000FC184F2D0F2C000C550B960133273195F4
:103EE00021953109220F331F421753079CF001E03F
:103EF000080F802F0E947917FC01892B59F08281CD
:103F0000B182A082F3821483C58206838E7FE0FA99
:103F100081F982830F900F900F900F90DF91CF91D6
:103F20001F910F91FF90EF90DF90CF90BF90AF90D7
:103F30000895180F2C2D220F121BCACF1C19C8CFA1
:103F4000181BC6CF5F926F927F928F929F92AF9213
:103F5000BF92CF92DF92EF92FF920F931F93CF9376
:103F6000DF93E82EF62E0E944210CF2DD0E00E2DCA
:103F700010E0609185047091860490918904D801C5
:103F8000A91BB109E0918704F091880490918A04FB
:103F9000AE01491B51096A9F90016B9F300D7A9FBA
:103FA000300D1124E49F5001E59FB00CF49FB00C3C
:103FB00011242A193B0921153E4F0CF44AC0AE9F2B
:103FC0009001AF9F300DBE9F300D1124649FF00112
:103FD000659FF00D749FF00D11242E0F3F1F2115CA
:103FE0003E4F0CF436C082508B3008F0F9C0E82FF9
:103FF000F0E0E350F04E0C947D37082064207220EE
:104000008E20AA20B8209C208020D420E220C62028
:104010008091D802E3E9AE2EEDE0BE2E82FF04C00F
:1040200073EDA72E7DE0B72E6F2D8FEF8E0D0E94C2
:10403000C8108823F1F05C2F442740585F4F702F41
:1040400066276C5D7F4FE12C01E02BE4C5010E94E7
:10405000261FDF91CF911F910F91FF90EF90DF907E
:10406000CF90BF90AF909F908F907F906F905F9018
:1040700008956F2D81E08E0D0E94C810882349F0AD
:104080005C2F442740585F4F702F662765527F4F43
:10409000DACF6FEF6F0D8E2D0E94C8105C2F442772
:1040A0004C5D5F4F81110BC061E06F0D8E2D0E9442
:1040B000C810882371F25C2F442745525F4F702F40
:1040C000662760587F4FBFCF5C2F442740585F4F13
:1040D000702F662760587F4FE12C03E020E68CEEBE
:1040E00094E0B5CF5C2F442740585F4F702F662770
:1040F00060587F4FE12C00E020E68CEA94E0A7CFE7
:104100005C2F442740585F4F702F662760587F4FC1
:10411000E12C00E020E58CE694E099CF5C2F442769
:1041200040585F4F702F662760587F4FE12C00E0AA
:1041300020E48CE294E08BCF5C2F442740585F4F03
:10414000702F662760587F4FE12C00E020E48CEE52
:1041500093E07DCF5C2F442740585F4F702F662738
:1041600060587F4FE12C00E020E48CEA93E06FCFB1
:104170005C2F442740585F4F702F662760587F4F51
:10418000E12C00E020E48CE693E061CF5C2F442733
:1041900040585F4F702F662760587F4FE12C00E03A
:1041A00020E58CE293E053CF5C2F442740585F4FCB
:1041B000702F662760587F4FE12C00E02BE48CEED7
:1041C00092E045CF5C2F442740585F4F702F662701
:1041D00060587F4FE12C00E02BE48CEA92E037CF6F
:1041E0008091D00887FD35CF6F2D8E2D0E94C8108D
:1041F000882309F42ECFB02EAA24DC2FCC2745012A
:1042000093943E0173946F2D8FEF8E0D0E94C81012
:10421000582E6F2D81E08E0D0E94C810D82E6FEFA2
:104220006F0D8E2D0E94C810182F61E06F0D8E2D1E
:104230000E94C810F82E511026C080917C049091E5
:104240007D048A159B05FCF4F11009C0EE24E3946B
:1042500080917E0490917F04861597050CF0E12CE7
:10426000111108C001E080917E0490917F04C8176D
:10427000D9070CF000E0CC24C3949301A501BE0142
:10428000C5010E947A1AF11025C080917E04909198
:104290007F0468167906F4F4D11009C0EE24E39483
:1042A00080917C0490917D04881599050CF0E12C97
:1042B000511008C001E080917C0490917D04A81603
:1042C000B9060CF000E0C12C9301A401B301C501B3
:1042D0000E947A1AD11026C080917C0490917D04AE
:1042E00088169906FCF4111109C0EE24E39480911C
:1042F0007E0490917F04C817D9070CF0E12CF110CF
:1043000008C001E080917E0490917F048615970596
:104310000CF000E0CC24C3949E01A401B301C401BD
:104320000E947A1A111195CE80917E0490917F049B
:104330008C179D070CF08DCE511009C0EE24E3942C
:1043400080917C0490917D04A816B9060CF0E12CB4
:10435000D11009C011E080917C0490917D048815F2
:1043600099050CF010E0C12C012F9E01A501BE01A2
:10437000C4010E947A1A6DCEE0E4F0E0E81BF10976
:10438000FF27EE0FFF1FEB5BFE4E85919491089582
:104390008F929F92AF92BF92CF92DF92EF92FF9255
:1043A0000F931F93CF93DF938C01DC01CD91DC91B0
:1043B000119714968C910E94BC212CE3FC012E9F36
:1043C000C0012F9F900D112497FF02C081509F4F75
:1043D000892F990F990BC80FD91FD8011496EC910A
:1043E000F0E0EE0FFF1FEB5BFE4E859194912CE306
:1043F000289F7001299FF00C1124F7FE03C0BFEF26
:10440000EB0EF11CEF2CFF0CFF08F8018281938169
:10441000E80EF91ECE01D7FF02C081509F4FB92E82
:104420006701F7FE03C0FFEFCF0ED11C6D2D8B2D62
:104430000E9442108A3009F46EC08C3009F484C0A6
:10444000D8011296ED90FC904701B0E38B1A9108C9
:10445000F801C080D1805601F0E3AF1AB108B40171
:10446000C5010E945810C82F811147C040E3C40EF7
:10447000D11CB401C6010E945810C82F81113DC043
:1044800050E3E50EF11CB701C6010E945810C82F79
:10449000811133C0B701C5010E945810C82F811186
:1044A0002CC0EEE8F4E084E00E38180711F4EDE9D2
:1044B000F4E04281538160817181C8010E94AA1693
:1044C000C82F81111AC089EDE82E82E0F82E99E9F3
:1044D000C92E93E0D92ED70114968C918770843021
:1044E00031F0B801C7010E94C916811133C0B8E08C
:1044F000EB0EF11CCE14DF0471F78C2FDF91CF91FE
:104500001F910F91FF90EF90DF90CF90BF90AF90F1
:104510009F908F9008954BE06D2D8B2D0E943B1046
:1045200041E0B701CE010E94CE1289EF9AE00E94CD
:10453000890D6CE378E0C8010E940F108091D102D0
:104540008F5F8093D1027CCF6DE178E0C8010E943B
:104550000F1076CFC82FD1CF0E94290A91E0811188
:1045600001C090E0892F089581ED99E00E94B30C7D
:1045700021E0892B09F420E0822F0895CF930E9437
:10458000850FC0E183FFC0E00E94850F82FDC062FD
:104590000E94850F87FDC4600E94850F84FDC8605E
:1045A0000E94850F85FDC1600E94850F86FDC26057
:1045B0008C2FCF9108951F920F920FB60F92112456
:1045C0002F933F938F939F93AF93BF938091BA04A0
:1045D0009091BB04A091BC04B091BD043091B9048A
:1045E00023E0230F2D3758F50196A11DB11D20930F
:1045F000B9048093BA049093BB04A093BC04B09315
:10460000BD048091BE049091BF04A091C004B091FC
:10461000C1040196A11DB11D8093BE049093BF04F7
:10462000A093C004B093C104BF91AF919F918F91AB
:104630003F912F910F900FBE0F901F90189526E875
:10464000230F0296A11DB11DD2CF1F920F920FB65C
:104650000F9211248F939F938091E1009091E1003C
:10466000937F9093E10083FF0FC01092E90091E0E7
:104670009093EB001092EC0092E39093ED00109277
:10468000CF0498E09093F00082FF22C093E09093D3
:10469000E9009091F200992319F09AE39093E800D1
:1046A0009091C502992341F09091C5029150909349
:1046B000C502911101C05D9A9091CE04992341F0F9
:1046C0009091CE0491509093CE04911101C0289AFC
:1046D00084FF18C08091E2008E7E81608093E200AA
:1046E0008091E1008F7E8093E1008091C6028E7EF2
:1046F00080618093C6029F918F910F900FBE0F90A3
:104700001F90189580FFF7CF8091E2008E7E806128
:104710008093E2008091E1008E7E8093E1008091A1
:10472000C6028E7E8160E5CF1F920F920FB60F9268
:104730001124CF92DF92EF92FF920F931F932F934A
:104740003F934F935F936F937F938F939F93AF9319
:10475000BF93EF93FF93CF93DF93CDB7DEB76C9703
:10476000DEBFCDBF1092E9008091E80083FF25C035
:1047700068E0CE0145960E94BA0B82EF8093E80074
:104780008D8987FF39C09091E80090FFFCCF982F6A
:10479000907609F034C19E894F89588D2F89F88C05
:1047A000911131C0803861F58091C7028093F1008A
:1047B0001092F1008EEF8093E8006C960FB6F8949B
:1047C000DEBF0FBECDBFDF91CF91FF91EF91BF91C3
:1047D000AF919F918F917F916F915F914F913F9199
:1047E0002F911F910F91FF90EF90DF90CF900F903E
:1047F0000FBE0F901F9018959EEF9093E800C7CFC3
:104800001092F100D5CF913059F48111D3CF4130BE
:10481000510581F68091C7028D7F8093C702CACF70
:10482000933049F48111C6CF4130510519F680917A
:10483000C7028260F2CF953041F48091E80080FF9A
:10484000FCCF20682093E300B5CF963009F0A9C0D3
:104850000B8D1C8D22E01092E9001092C302109281
:10486000C202F2122EC01092C1021092C0020E9427
:10487000890B1F8299E09983FA8291E09E8390EAE6
:1048800098879AEF99872091C2023091C302275FDF
:104890003F4F3C832B838D831092E9001092C3021B
:1048A0001092C2021093C1020093C00249E050E08E
:1048B000BE016F5F7F4F80E00E94630B0E94890BF7
:1048C00079CF1093C1020093C0020E94640ADC01F8
:1048D00012960D911C910115110509F451C1D801D1
:1048E000ED91FC910480F581E02DBE016B5E7F4F60
:1048F000C8010995009709F03EC1F80100851185AE
:10490000EACFF3E0FF120EC08F89882309F440C07C
:10491000823061F440E867E080E09AE00E94300B6A
:10492000811148CF81E28093EB0047CF813029F499
:1049300040E86BE084EF99E0F1CF833099F70E9473
:10494000640ADC011296ED90FC908E010F5F1F4F00
:104950006801E114F10479F0D701ED91FC91068032
:10496000F781E02DB801C7010995080F111DF70166
:10497000E084F184EECFD8011C92F6010190002072
:10498000E9F73197BF016C197D0940E0C601C6CF38
:104990006EED79E0FB01449150E080E80E94630BEA
:1049A00009CF973009F4BECF983021F481E080938D
:1049B000F10000CF993009F0FDCE837009F0B2CF3D
:1049C000E3E1F1E081E031E096E32191222371F00F
:1049D0008093E9003093EB00DF0111972C91209335
:1049E000EC009093ED008F5F873079F78EE780932E
:1049F000EA001092EA008F898093CF04DBCE8B8D82
:104A00009C8D1092E9001092C3021092C202909302
:104A1000C1028093C002898D811192C08E899D89C7
:104A2000913A49F4813209F07DCF47E050E068E0E7
:104A300071E080E0B3CF913209F074CF833269F432
:104A40008F89988DB0E0A0E08093040190930501D8
:104A5000A0930601B0930701ADCE803269F4809136
:104A6000E80082FFFCCF67E088E091E00E94BA0B8B
:104A70008BEF8093E8009ECE823209F09BCE8F8927
:104A800080930F01EEEFFFE7859194918B3F9C4D52
:104A900051F1E0E0F8E08091080190910901A091C6
:104AA0000A01B0910B01803B9440A105B105F1F4DE
:104AB00080910F0180FD1AC0EE3F8AE0F80789F56A
:104AC00087E797E791838083809160008093C40299
:104AD00088E19BE00FB6F894A895809360000FBE24
:104AE0009093600067CEEEEFFAE0D5CF80819181A0
:104AF0008737974709F05ECEA8958091600088615E
:104B0000809360008091C40280936000EE3F2AE0B1
:104B1000F20789F08091FE0A9091FF0A91838083C9
:104B200049CE808191818737980751F29093FF0A8F
:104B30008093FE0AC5CF1092FF0A1092FE0A3ACE69
:104B40000E94640ADC0112960D911C910115110559
:104B500009F4E8CED801ED91FC910190F081E02DAF
:104B6000BE016B5E7F4FC8010995811123CEF8010C
:104B700000851185EBCF181619060CF41BCED2CE8A
:104B8000F1E0FF12BECE62EE79E004CF1F920F92E9
:104B90000FB60F9211242F933F934F935F936F9310
:104BA0007F938F939F93AF93BF93EF93FF938091E6
:104BB000BC029091BD02A091BE02B091BF02892BB0
:104BC0008A2B8B2B09F440C08091BB0281110BC052
:104BD00088B190E4892788B98091BA02882319F0B6
:104BE00088B1805888B98091BC029091BD02A09193
:104BF000BE02B091BF02181619061A061B069CF4D5
:104C00008091BC029091BD02A091BE02B091BF0202
:104C10000197A109B1098093BC029093BD02A093B2
:104C2000BE02B093BF02FF91EF91BF91AF919F91F0
:104C30008F917F916F915F914F913F912F910F9045
:104C40000FBE0F901F9018950E94E10CECCFE1ED84
:104C5000F9E01382128288EE93E0A0E0B0E0848352
:104C60009583A683B7838DE191E0918380838FEF55
:104C70009FEF95878487E1E3FAE08FE291E09183EB
:104C800080831582168280E18783148213821186C5
:104C900080EE99E09093300A80932F0A80E090E8AC
:104CA00090932E0A80932D0A46983E9A47983F9AF1
:104CB0000895CF93DF93CDB7DEB76B970FB6F89417
:104CC000DEBF0FBECDBF789484B5826084BD84B54D
:104CD000816084BD85B5826085BD85B5816085BDF7
:104CE00080916E00816080936E00109281008091AF
:104CF0008100826080938100809181008160809337
:104D0000810080918000816080938000809191007B
:104D100082608093910080919100816080939100E6
:104D2000809190008160809390008091C1008460A8
:104D30008093C1008091C10082608093C100809106
:104D4000C10081608093C1008091C3008160809325
:104D5000C3008091C00082608093C0008091C20037
:104D600081608093C20080917A00846080937A0091
:104D700080917A00826080937A0080917A008160CD
:104D800080937A0080917A00806880937A001092F4
:104D9000CF041092C7021092C6028091D7008160A2
:104DA0008093D70080EA8093D80089B5806189BD5F
:104DB00089B5826089BD09B400FEFDCF61E070E075
:104DC00080E090E00E94CF0A8091D8008F7C8061C3
:104DD0008093D8008091E000807F8093E0008091F4
:104DE000E1008E7E8093E1008DE08093E200559A91
:104DF000209A81EC80937C0085B1806F85B984B165
:104E0000877E84B984B1876E84B95E9A5F988AB1CF
:104E1000806D8AB9769A6E9881B3806F81BB8998CC
:104E200080B38D7080BB80E58CBD81E08DBD85E059
:104E300090E00E94800F5F9A85E090E00E94800FD2
:104E40005E985C98E8E0FAE085E19AE024912EBD56
:104E500000000DB407FEFDCF31968E179F07B1F706
:104E60005C9A81E880936400809165008160809302
:104E700065000E94850F87FF35C05C9885EA8EBD6E
:104E800000000DB407FEFDCF5C9A2E982F982D9848
:104E90008091640080628093640081E083BF889584
:104EA00013BEFCCF2D9A88EC90E00E94800F2F98C3
:104EB00082E090E00E94EF368F3F29F06FEF82E0B2
:104EC00090E00E94F73684EF91E00E94800F2F9AC5
:104ED0000E94850F84788438D9F30EC088EC90E066
:104EE0000E94800F0E94850F82FF27C02D980E948C
:104EF000850F84788438B1F20E94850F84718431E3
:104F000069F72D9A88EC90E00E94800F2E9882E03D
:104F100090E00E94EF36882329F060E082E090E084
:104F20000E94F73684EF91E00E94800F2E9A0E9433
:104F3000850F84718431D9F3D1CF2D9A81E280938A
:104F4000380A8FEF9FEF9093DE098093DD0910926E
:104F500011010E949D0A61606093C8021092AD0425
:104F60008091B90381708093B9038091DE038170D1
:104F70008093DE0380910304817080930304109278
:104F80009E031092A5031092AC031092B30329E97B
:104F900033E049ED52E05D874C87AC85BD851496C2
:104FA0008C911497887F846014968C93149718962C
:104FB000BD87AC872A173B0781F72FB7F8948091FC
:104FC000BA049091BB04A091BC04B091BD042FBF62
:104FD0008093B5049093B604A093B704B093B8043B
:104FE0002FB7F8948091BA049091BB04A091BC04AF
:104FF000B091BD042FBF8093AF049093B004A093F1
:10500000B104B093B204D987C8878FB7F8942091C0
:10501000BA043091BB044091BC045091BD042E876A
:105020003F87488B598B8FBF8091B3049091B40414
:10503000820F931F2091B5043091B604821B930B0D
:105040009093B4048093B3048E859F85A889B98911
:105050008093B5049093B604A093B704B093B804BA
:1050600010E08091B3049091B404829714F40C94EE
:105070001D3080911101833010F5813008F445C056
:10508000813061F40E94AC22882319F160E081ED47
:1050900099E00E944C0C82E08093110180911101F3
:1050A0008230B9F40E94B422882399F081ED99E00E
:1050B0000E94710C81110DC00E9431120AC085300E
:1050C00009F466C0873009F463C0843011F40C948D
:1050D00043308091D8028F5F8093D8028091B304CF
:1050E0009091B40481979093B4048093B3042E8577
:1050F0003F85488959892093AF043093B004409389
:10510000B1045093B20411E0ACCF0E94AC228823CA
:1051100069F08091C902811125C06091C80281EDBA
:1051200099E00E944C0C8EE18093C9020E94B42247
:10513000882379F281ED99E00E94710CF82E082FF6
:10514000880F110B0E94B422882371F081ED99E041
:105150000E948F0C80171106A9F781ED99E00E943B
:10516000710CF0CF8150E0CF9091C802F91206C0C7
:105170000E949D0A61606093C802ABCF81E09F15D9
:105180000CF480E08093AC0481E00E942612A1CF51
:105190000E94AC22882309F450C78091D702811164
:1051A00009C00E94BE228093D602682F81ED99E04B
:1051B0000E944C0C0E94B422882309F43BC781ED65
:1051C00099E00E94710C282E1092D7028091D5028E
:1051D000882349F081508093D502811104C0109238
:1051E00079041092780499E9E92E93E0F92ED70119
:1051F00015968C911597882309F454C18150159602
:105200008C93159714968C910E94BC2197FD039660
:105210002C015594479455944794D7011496EC91DA
:10522000F0E0EE0FFF1FEB5BFE4E6590749077FE93
:1052300003C0B3E06B0E711C75946794759467940A
:10524000F701A080B180A40CB51CB182A08282803D
:105250009380860C971C938282828681BEE8CB2E37
:10526000B4E0DB2E8F3F71F0ADE9CA2EA4E0DA2E58
:105270008E3F41F0F8E08F9FC00111249C0127521E
:105280003D4F6901B401C5010E945810382E882392
:1052900009F45DC0B7FE03C03FEFA30EB11CDB2CC9
:1052A0000B2D97FE03C04FEF840E911C192D692D15
:1052B000802F0E944210893009F046C040E0692DDD
:1052C000802F0E943B109F8A1E8AAE88BF8850E8BC
:1052D000A50EB11CD98E188EC88CD98C60E8C60E6C
:1052E000D11C41E0B501C6010E94CE120E943013CC
:1052F00065E070E00E94553781309105E9F0B0F02B
:10530000029701F185EB9CE00E94890DF701628113
:105310007381661977098081918140E0841995092C
:105320000E94CE12D70115961C92BCC0A501B601F1
:1053300083E00E945817E6CF45E0612F802F0E943E
:105340003B10E0CF46E0F9CF83E69CE0DDCF8EE86E
:10535000C81684E0D80631F09DE9C91694E0D90654
:1053600009F075C009ED12E0D8011496BC91BA8B12
:10537000B770BA87B43041F0A401B501C8010E94EA
:10538000AA1681110C94C136085F1F4FEC85FD856C
:105390000E171F0749F705E01AE0BEE8CB16B4E088
:1053A000DB0609F060C0D70112964D915C9113970E
:1053B0006D917C918DE994E00E94AA16882309F4EE
:1053C0006FC0612F8DE994E00E94EF0F8091AA04D5
:1053D00081119CCF0093CC0299CF9A509F7780780F
:1053E000892BD80115968C9383E69CE00E94890D49
:1053F000F8018481877C8861B82E8483C8010E946B
:1054000049170696FC0184918295880F880F807C4D
:10541000FB2DFF73BF2EB82AD8011496BC92BEE8AC
:10542000CB16B4E0DB0629F4F80185818F778583FC
:105430006DCFFDE9CF16F4E0DF0609F067CFD801A4
:1054400015968C911597806815968C935FCFC60141
:105450000E944917F6010481077010E0009719F0C7
:10546000FC0134961491A401B5018EE894E00E94E9
:10547000AA16382E882311F40C94E636612F8EE894
:1054800094E00E94EF0F80919B04811102C0009371
:10549000CC02FDE9CF16F4E0DF0609F084CF36CF69
:1054A000311034CFB7E0EB0EF11CE5EBF3E0EE1575
:1054B000FF0509F09CCEA5EBB3E044E254E000E820
:1054C000FFE7FF2E14968C9114978E7F9D012B5D24
:1054D0003F4F8823E1F1FD013596E217F30789F18B
:1054E00010811038F1F083818D5F83839281612F69
:1054F000012E000C770B690F711D97FD7A9561588D
:105500007F4F6F3F710560F46181082E000C990B8D
:10551000860F911D67FD9A9581386FEF96071CF4F1
:1055200000833496DACF803891051CF01282138202
:10553000F1828281180F108381819381890F818389
:10554000F0CF14968C911497825014968C93D901B5
:105550004217530709F0B6CF09ED12E0EFE03E2EF7
:10556000D80114968C911497982F9770943059F015
:10557000982F907C09F4A4C09091D8029F70805419
:10558000992309F4ADC0085F1F4FEC85FD850E1708
:105590001F0731F70EE814E0B12CA12CF8E14F2ED3
:1055A000512CA7E07A2E8091AC04D090D6028A15B7
:1055B0001B0409F0D22C8D2D81709D2D9270D4FE8C
:1055C00036C3682E6194992319F066246394681A8F
:1055D000C12CD8011C968C911C97882309F432C3E6
:1055E00081501C968C93F80181858C150CF06EC34C
:1055F0008F5F8187F8014185842F85959481890F7C
:105600008483D2FA332430F8D3FC3A948091AC04EA
:10561000FFE08F9FC001112482579B4F0817190785
:1056200009F075C32091CA023091CB022F5F3F4F22
:105630003093CB022093CA02E42EEE0CE40E4EE02F
:10564000649EE00C11248E2D311003C0F12C6620D5
:10565000A1F05AE0259FE02D1124F0E0EE0FFF1F8E
:10566000EB5BFE4E2591349137FF02C021583F4F2E
:10567000220F232F221F330BF22ED8011A969C9152
:105680001A97992379F091501A969C930E94B3121D
:10569000837099270197F80E0E94B3128F71992792
:1056A00040978E0D90918B0498170CF015C39A5F5C
:1056B00090938B0489170CF017C380938B0414C349
:1056C000982F9695969596959770913069F158F028
:1056D000923009F4A7C2933009F055CF877C8860D7
:1056E00014968C9350CF6EE874E0C8010E94EE16B9
:1056F000811118C06DE974E0C8010E94EE16FF2404
:10570000F394882309F43FCF81E99BE00E94890D3F
:10571000F8018481877C886084838581F0FA87F929
:10572000858331CFF12CF0CF1796FC901797169602
:10573000EC906F2D8E2D0E94C810D82EC8010E94AB
:105740004917F80180809180D1109AC02E2D30E049
:105750003B872A87522E442430E8430E511C4F2D9C
:1057600050E05B8B4A8B342F2227D901A058BF4FC2
:10577000BD8BAC8BFC013396E491F0E0CC24DD24AE
:10578000CE1ADF0AC2018819990936018C159D05C8
:105790002CF03F018E179F070CF43C01D8011296A4
:1057A000AD90BC908C899D898A199B098C159D05AB
:1057B0002CF06F018E179F070CF46C01860C971C60
:1057C000F80191828082AC0CBD1CB382A282E5807C
:1057D000E7FAEE24E0F83E9C70011124970122576D
:1057E0003B4F7901B901C8010E94C916882309F409
:1057F000F7C0C8010E944917FC013796E491E111F6
:1058000032C00496FC016491C7010E94EF0FD801D9
:105810001596EC911597E7FBEE27E0F93E9EF00117
:105820001124E257FB4F8585811105C014968C9198
:1058300087708093CC02F8018481877CF82E68946D
:10584000F4F8F482C8010E9449170596FC0184917E
:105850008295880F880F807CFF2DFF73FF2EF82A1A
:10586000D8011496FC92F8018081918186199709DC
:1058700091838083828193818C199D099383828394
:10588000F801258127FB222720F930E0329EF00124
:10589000339EF00D1124E257FB4F80819181D80196
:1058A0004D915C91841B950B97FF03C09195819559
:1058B0009109492F329EF001339EF00D1124E257D9
:1058C000FB4F82819381F80122813381821B930BEC
:1058D00097FF03C0919581959109692F941708F45A
:1058E0007EC1B0E1FB2E992331F070E080E190E0C1
:1058F0000E946937F62EC8010E9449170796FC01DD
:105900008491882309F43FCE0E9430136F2D70E0FC
:105910008617170608F037CED8011596EC90E7FAEF
:10592000EE24E0F8F12C3E9CC0013F9C900D112428
:10593000FC01E257FB4F6F01BF01C8010E94EE1648
:10594000882309F420CED6018D919C91F801208105
:105950003181821B930B97FF02C081509F4F292FEB
:105960003E9CF0013F9CF00D1124E257FB4F8281D9
:105970009381D80112964D915C91841B950B97FFF2
:1059800002C081509F4F892F21112BC160EC97FDE0
:1059900004C060E4992309F4F6CDC8010E94FA1608
:1059A000882309F4F0CD87E39BE00E94890DF8017C
:1059B0008481877CF82E6894F4F8F482C8010E94F0
:1059C00049170596FC0184918295880F880F807C89
:1059D000FF2DFF73FF2EF82AD8011496FC92D3CD29
:1059E000D7013C9111962C91119712969C91129788
:1059F00013968C914814590409F042CFEC89FD8923
:105A0000EA15FB0509F03CCFC32ED22ED7FE03C00A
:105A1000FFEFCF0ED11CCD2CDD0CDD082A853B8598
:105A2000C21AD30A1C141D041CF4CC24C394D12C18
:105A3000D7FE03C0CC24CA94DC2CBC2CE92EF82E53
:105A4000F7FE03C03FEFE30EF11CEF2CFF0CFF0845
:105A50004A895B89E41AF50A1E141F041CF4EE241B
:105A6000E394F12CF7FE03C0EE24EA94FE2CAE2C56
:105A70000E943013982ED80115968C9087FA6627CD
:105A800060F9369EB001112462577B4FC8010E9415
:105A9000EE16811113C0782C7094771C7724771C34
:105AA000379CB001112462577B4FC8010E94EE164B
:105AB000882321F070FA87F8F8018582C8010E94D6
:105AC00049170796FC0184918823B9F1D8011596EE
:105AD0004C91159747FB442740F950E0349EF00164
